:1000000022C03CC017C43AC039C038C037C036C05F
:1000100035C034C033C032C031C030C02FC02EC054
:100020002DC02CC02BC02AC029C028C027C026C084
:1000300025C024C032C335C338C33BC33EC341C30C
:1000400044C347C34AC311241FBECFEFD2E0DEBF73
:10005000CDBF11E0A0E0B1E0E2ECFCE002C0059011
:100060000D92AA34B107D9F711E0AAE4B1E001C0BA
:100070001D92AF35B107E1F770D321C6C1CF209AE9
:1000800090E087FF02C0289A01C028980000299AB2
:10009000000029989F5F983011F0880FF2CF0895E3
:1000A000209890E080E0189B03C0880F816001C019
:1000B000880F0000299A000029989F5F983099F7CF
:1000C0000895209A20E097FF02C0289A01C028983E
:1000D000299A000029982F5F203119F0880F991F65
:1000E000F2CF0895209820E030E040E0C901880F69
:1000F000991F189B03C09C01216001C09C01299A93
:10010000000029984F5F403189F7C90108950F9386
:100110001F938B012A98B3DFC801D3DF2A9A1F915E
:100120000F9108952A988068AADF0000DBDF2A9AE1
:1001300008950F931F938B01782F7295707F60E065
:10014000616187E0E4DF88E0B801E1DF1F910F9192
:1001500008950F931F938B01682F70E07695762F8B
:10016000662777956795616187E0D1DF89E0B801FF
:10017000CEDF1F910F910895782F7295707F60E008
:10018000616187E0C4DF88E0CDDF08951F93CF93DE
:10019000DF9382E060E178EFCCDF1FEFCFEFDFEF9E
:1001A0008FE061E070E0C5DF8FE0E6DF80FF05C033
:1001B00021978FEFCF3FD807B9F78FE0DDDF93703E
:1001C000969587958B5B90400B9730F0112311F437
:1001D00084E003C01150E4CF85E0DF91CF911F91FF
:1001E00008952A984CDF2A9A0895EF92FF920F9370
:1001F0001F937B018C012A9880E241DF812F992790
:10020000AA27BB273CDFC801AA27BB2738DFBB27AB
:10021000A12F902F8F2D33DF8E2D31DF2A9A80E092
:100220001F910F91FF90EF9008956F927F928F92A0
:100230009F92AF92BF92CF92DF92EF92FF920F9375
:100240001F93CF93DF933B014C012A9A2998289A58
:1002500080E7C7DF84EC99E00197F1F7C0E0D1E0D7
:1002600000E069917991802F52DF0F5F0830C9F764
:10027000C4E1D1E00AE069917991802F48DF0F5FF6
:100280000031C9F7C0E2D1E000E069917991802F97
:1002900050DF0F5F0031C9F7C0E4D1E000E06991A1
:1002A0007991802F56DF0F5F0530C9F784EC99E014
:1002B0000197F1F768EA79E381E79AE096DF2A98F7
:1002C00080EADDDEEDDEECDEEBDEEADE2A9A8AEFA6
:1002D00090E00197F1F7C401B3012DEC3CEC4CE444
:1002E00051E444D35B016C01A9D3E62E84E179DFAC
:1002F00083E060E070E00BDF86E060E070E007DF45
:10030000C401B30120E030E047E554E42BD3882357
:100310001CF460E27AE002C060E27AE184E0F7DE99
:10032000FF24B7017A6081E0F2DE0027F7FC009538
:10033000102FC801B701B0D39B01AC01C601B501B4
:10034000ACD220E030E040E857E456D477D39B01AC
:10035000AC0182E0B901DBDE82E060E070E0F9DE52
:1003600086EA9EE00197F1F78FE062EC78E2CFDE5B
:100370008FE0D8DE82709870892BD1F78EE0D2DEC4
:100380008C018AE0F9DE24E0969587952A95E1F7BD
:1003900094E0169507959A95E1F7802B80FD32C081
:1003A0008CE060E07CE4B3DE82E060E078EFC1DE08
:1003B00080E066E077EFBDDE8FE060EC70E3A7DE03
:1003C0008FE0B0DE94FDFCCF8CE060E074E49FDE53
:1003D00082E060E078EFADDE80E066E077EFA9DEF6
:1003E0008FE064EC70E293DE01E08FE09BDE902F03
:1003F0009A95F1F782FDF9CF8EE094DE90FD02C070
:1004000080E001C084E0DF91CF911F910F91FF90B8
:10041000EF90DF90CF90BF90AF909F908F907F90A4
:100420006F90089587E061E070E071DE89E07ADE28
:1004300008951F93182F84E1D4DE87E060E170E017
:1004400066DE1233C9F0133328F4123041F01A304B
:10045000F9F409C01436A1F01639D1F41FC080E0B8
:1004600063E270E303C080E063E278E050DE8AE09C
:1004700060ED78E14CDE12C080E063E270E0F6CF20
:1004800080E061E270E043DE8AE064ED78E1F2CF83
:1004900087E061E170E03BDE81E009C087E061E177
:1004A00070E035DE84EC99E00197F1F780E01F9170
:1004B0000895FF920F931F93CF93DF93182F092F67
:1004C000F62E80E68EDE2A9880E4D9DD212F302FAB
:1004D000C901EC0110E003C08991D1DD1F5F1F1538
:1004E000D8F32A9ADF91CF911F910F91FF90089531
:1004F0000F931F93CF93DF93EC0180EE72DE81E0C8
:100500008A95F1F72A9880ECBADDCADD8E3F11F0AA
:1005100000E00FC08883C4DD082F898381508F30AD
:1005200040F412E003C0BCDD89831F5F21961017E1
:10053000D0F32A9A802FDF91CF911F910F910895C8
:100540000F931F93082F84E14CDE10E00150104000
:100550008DE0B801EEDD8AE064E070E0EADD80E085
:100560001F910F9108951F93182F883088F484E10C
:1005700038DE612F70E0660F771F61627A6084E079
:10058000D8DD83E08A95F1F781E0F6DD90E087FF22
:1005900091E0892F1F910895CF93DF9388E121DEA9
:1005A0008CE060E074E4B3DD8FE0BCDDBC01616031
:1005B0008FE0ADDDCFEFDFEF8FE0B4DD21979FEF70
:1005C000CF3FD90711F080FDF7CFCD2B19F4C0E054
:1005D000D0E004C08BE0A6DDEC01D17084E101DE47
:1005E000CE01DF91CF910895D1DD843099F084E17F
:1005F000F8DD88E065E470E09CDD81E06FE772E0A3
:1006000098DD8DE060E07CE082DD8FE060EC72E2FE
:100610007EDD80E0089584E1E4DD88E065E470E05B
:1006200088DD81E066E07FEF84DDB0DD843049F075
:1006300082E060E178EF7DDD8FE060EC72E267DD03
:1006400080E0089584E1CDDD86E08A95F1F788E0C9
:1006500067E470E06EDD81E060EB78E96ADD96DDED
:10066000843049F082E060E378EF63DD8FE060EC96
:1006700072E24DDD80E008951F93182F84E1B1DD13
:1006800086E08A95F1F7E12FF0E0E930F10518F402
:10069000E65EFF4F099481E025C080E061E073E0F1
:1006A0001FC080E069E073E01BC080E06AE073E097
:1006B00017C080E061E673E013C080E06AE273E097
:1006C0000FC080E06CE173E00BC080E066E273E095
:1006D00007C080E06EE373E003C080E06FE573E085
:1006E00038DD80E01F91089586E084B915B813B80D
:1006F00083E087B918B816B880E18AB91BB819B871
:10070000089515BE82E08DBB089580E197E20197C0
:10071000F1F786B1887111F086B18871089540E0D3
:1007200050E090E069E170E014C0419A20EA3FE0B7
:10073000FB013197F1F721503040D1F7419820EA81
:100740003FE0FB013197F1F721503040D1F74F5F87
:100750005F4F481759074CF308951F93CF93DF93CA
:10076000F894C2DF15BE82E08DBBC8EAD1E661E233
:1007700070E08BEE93E459DDFE013197F1F78823A9
:10078000B1F786E079DF80E1DBDE5CDF789488E139
:1007900028DDC0E1D7E211E080914E01882341F0CD
:1007A00080914D01419A10924E014CDF88E119DD94
:1007B0003299F2CFCE010197F1F786B1887161F3DA
:1007C00086B1887149F38031B9F0883151F08830B1
:1007D000F1F480914A01882311F0419A12C04198A6
:1007E00014C080914A01882321F0419A10924A0155
:1007F00003C0419810934A0180914A01882321F057
:100800005C9A10924A0103C05C9810934A0186B129
:100810008871E9F7C1CFCF93DF93EC0188E1E1DC88
:1008200083E08A95F1F74D99FECFCE0161DEDF912D
:10083000CF9108951F920F920FB60F9211242F930C
:100840003F934F935F936F937F938F939F93AF9358
:10085000BF93EF93FF938FE491E0DDDF80934D0131
:1008600081E080934E01FF91EF91BF91AF919F91F5
:100870008F917F916F915F914F913F912F910F9049
:100880000FBE0F901F90189514DE8AE1AADC83E05A
:100890008A95F1F74D99FECF08955058BB27AA27A6
:1008A0000ED070C161D130F066D120F031F49F3F9D
:1008B00011F41EF456C10EF4E095E7FB4CC1E92F8C
:1008C00072D180F3BA17620773078407950718F08F
:1008D00071F49EF58AC10EF4E0950B2EBA2FA02D6F
:1008E0000B01B90190010C01CA01A0011124FF27DD
:1008F000591B99F0593F50F4503E68F11A16F040D8
:10090000A22F232F342F4427585FF3CF46953795D6
:100910002795A795F0405395C9F77EF41F16BA0B9B
:10092000620B730B840BBAF09150A1F0FF0FBB1F49
:10093000661F771F881FC2F70EC0BA0F621F731F92
:10094000841F48F4879577956795B795F7959E3FEF
:1009500008F0B3CF9395880F08F09927EE0F97957D
:1009600087950895D4D008F481E008950CD00AC189
:1009700002D140F0F9D030F021F45F3F19F0EBC024
:10098000511134C1EEC00FD198F39923C9F3552307
:10099000B1F3951B550BBB27AA2762177307840772
:1009A00038F09F5F5F4F220F331F441FAA1FA9F328
:1009B00033D00E2E3AF0E0E830D091505040E6951A
:1009C000001CCAF729D0FE2F27D0660F771F881F7B
:1009D000BB1F261737074807AB07B0E809F0BB0B6A
:1009E000802DBF01FF2793585F4F2AF09E3F51058E
:1009F00068F0B1C0FBC05F3FECF3983EDCF3869536
:100A000077956795B795F7959F5FC9F7880F911D03
:100A10009695879597F90895E1E0660F771F881FEF
:100A2000BB1F621773078407BA0720F0621B730BA2
:100A3000840BBA0BEE1F88F7E0950895BCD088F0C0
:100A40009F5790F0B92F9927B751A0F0D1F0660FBA
:100A5000771F881F991F1AF0BA95C9F712C0B130D5
:100A600081F0C3D0B1E00895C0C0672F782F8827E8
:100A7000B85F39F0B93FCCF3869577956795B39514
:100A8000D9F73EF490958095709561957F4F8F4F83
:100A90009F4F0895E89409C097FB3EF49095809588
:100AA000709561957F4F8F4F9F4F9923A9F0F92F34
:100AB00096E9BB279395F695879577956795B795B2
:100AC000F111F8CFFAF4BB0F11F460FF1BC06F5F98
:100AD0007F4F8F4F9F4F16C0882311F096E911C0AA
:100AE000772321F09EE8872F762F05C0662371F0CB
:100AF00096E8862F70E060E02AF09A95660F771FDF
:100B0000881FDAF7880F9695879597F90895990FBA
:100B10000008550FAA0BE0E8FEEF16161706E807C7
:100B2000F907C0F012161306E407F50798F0621BE8
:100B3000730B840B950B39F40A2661F0232B242BBD
:100B4000252B21F408950A2609F4A140A6958FEFDC
:100B5000811D811D089597F99F6780E870E060E02E
:100B600008959FEF80EC089500240A941616170646
:100B700018060906089500240A941216130614068E
:100B800005060895092E0394000C11F4882352F0F1
:100B9000BB0F40F4BF2B11F460FF04C06F5F7F4FA9
:100BA0008F4F9F4F089557FD9058440F551F59F090
:100BB0005F3F71F04795880F97FB991F61F09F3F4A
:100BC00079F087950895121613061406551FF2CF73
:100BD0004695F1DF08C0161617061806991FF1CFC3
:100BE00086957105610508940895E894BB276627EA
:100BF0007727CB0197F908950BD0C4CFB5DF28F044
:100C0000BADF18F0952309F0A6CFABCF1124EECFB1
:100C1000CADFA0F3959FD1F3950F50E0551F629F57
:100C2000F001729FBB27F00DB11D639FAA27F00D45
:100C3000B11DAA1F649F6627B00DA11D661F829F6C
:100C40002227B00DA11D621F739FB00DA11D621F51
:100C5000839FA00D611D221F749F3327A00D611D6E
:100C6000231F849F600D211D822F762F6A2F112450
:100C70009F5750408AF0E1F088234AF0EE0FFF1FA3
:100C8000BB1F661F771F881F91505040A9F79E3FDA
:100C9000510570F060CFAACF5F3FECF3983EDCF3D4
:100CA000869577956795B795F795E7959F5FC1F717
:100CB000FE2B880F911D9695879597F90895F894C6
:020CC000FFCF64
:100CC2002112240A05B80000200A240000001100A5
:100CD20000000000D418097000440008454CC020F0
:100CE20006F7000000F80711709901020F40C02AB0
:100CF200450081D20400250827010F005F1500007E
:0A0D02005F03008400000000000001
:00000001FF
