:1000000022C03CC03BC03AC039C038C037C036C03F
:1000100035C034C033C032C031C030C02FC02EC054
:100020002DC02CC02BC02AC029C028C027C026C084
:1000300025C024C048C34BC34EC351C354C357C388
:100040005AC35DC360C311241FBECFEFD2E0DEBF31
:10005000CDBF11E0A0E0B1E0E2E8FCE002C0059015
:100060000D92A035B107D9F711E0A0E5B1E001C0CC
:100070001D92A435B107E1F799D301C6C1CF209AEB
:1000800090E087FF02C0289A01C028980000299AB2
:10009000000029989F5F983011F0880FF2CF0895E3
:1000A000209890E080E0189B03C0880F816001C019
:1000B000880F0000299A000029989F5F983099F7CF
:1000C0000895209A20E097FF02C0289A01C028983E
:1000D000299A000029982F5F203119F0880F991F65
:1000E000F2CF0895209820E030E040E0C901880F69
:1000F000991F189B03C09C01216001C09C01299A93
:10010000000029984F5F403189F7C90108950F9386
:100110001F938B012A98B3DFC801D3DF2A9A1F915E
:100120000F9108952A988068AADF0000DBDF2A9AE1
:1001300008950F931F938B01782F7295707F60E065
:10014000616187E0E4DF88E0B801E1DF1F910F9192
:1001500008950F931F938B01682F70E07695762F8B
:10016000662777956795616187E0D1DF89E0B801FF
:10017000CEDF1F910F910895782F7295707F60E008
:10018000616187E0C4DF88E0CDDF08951F93CF93DE
:10019000DF9382E060E178EFCCDF1FEFCFEFDFEF9E
:1001A0008FE061E070E0C5DF8FE0E6DF80FF05C033
:1001B00021978FEFCF3FD807B9F78FE0DDDF93703E
:1001C000969587958B5B90400B9730F0112311F437
:1001D00084E003C01150E4CF85E0DF91CF911F91FF
:1001E00008952A984CDF2A9A0895EF92FF920F9370
:1001F0001F937B018C012A9880E241DF812F992790
:10020000AA27BB273CDFC801AA27BB2738DFBB27AB
:10021000A12F902F8F2D33DF8E2D31DF2A9A80E092
:100220001F910F91FF90EF9008956F927F928F92A0
:100230009F92AF92BF92CF92DF92EF92FF920F9375
:100240001F93CF93DF933B014C012A9A2998289A58
:1002500080E7C7DF84EC99E00197F1F7C0E0D1E0D7
:1002600000E069917991802F52DF0F5F0830C9F764
:10027000C4E1D1E00AE069917991802F48DF0F5FF6
:100280000031C9F7C0E2D1E000E069917991802F97
:1002900050DF0F5F0031C9F7C0E4D1E000E06991A1
:1002A0007991802F56DF0F5F0530C9F784EC99E014
:1002B0000197F1F768EA79E381E79AE096DF8AEF40
:1002C00090E00197F1F7C401B3012DEC3CEC4CE454
:1002D00051E42CD35B016C0191D3E62E84E181DFE4
:1002E00083E060E070E013DF86E060E070E00FDF45
:1002F000C401B30120E030E047E554E413D3882380
:100300001CF460E27AE002C060E27AE184E0FFDEA1
:10031000FF24B7017A6081E0FADE0027F7FC009540
:10032000102FC801B70198D39B01AC01C601B501DC
:1003300094D220E030E040E857E43ED45FD39B0104
:10034000AC0182E0B901E3DE82E060E070E001DF51
:1003500086EA9EE00197F1F78FE062EC78E2D7DE63
:100360008FE0E0DE82709870892BD1F78EE0DADEC4
:100370008C018AE001DF24E0969587952A95E1F7C4
:1003800094E0169507959A95E1F7802B80FD32C091
:100390008CE060E07CE4BBDE82E060E078EFC9DE08
:1003A00080E066E077EFC5DE8FE060EC70E3AFDE03
:1003B0008FE0B8DE94FDFCCF8CE060E074E4A7DE53
:1003C00082E060E078EFB5DE80E066E077EFB1DEF6
:1003D0008FE064EC70E29BDE01E08FE0A3DE902F03
:1003E0009A95F1F782FDF9CF8EE09CDE90FD02C078
:1003F00080E001C084E0DF91CF911F910F91FF90C9
:10040000EF90DF90CF90BF90AF909F908F907F90B4
:100410006F900895EF92FF920F931F937C012A989B
:1004200080EA2DDE3DDEF70181938F0139DEF70191
:10043000818336DEF801818333DE0F5F1F4FF801C1
:1004400081832A9A80E01F910F91FF90EF90089589
:1004500087E061E070E05BDE89E064DE08951F9371
:10046000182F84E1BEDE87E060E170E050DE1233D9
:10047000C9F0133328F4123041F01A30F9F409C0EE
:100480001436A1F01639D1F41FC080E063E270E3A6
:1004900003C080E063E278E03ADE8AE060ED78E174
:1004A00036DE12C080E063E270E0F6CF80E061E209
:1004B00070E02DDE8AE064ED78E1F2CF87E061E163
:1004C00070E025DE81E009C087E061E170E01FDEB9
:1004D00084EC99E00197F1F780E01F910895FF9275
:1004E0000F931F93CF93DF93182F092FF62E80E6DB
:1004F00078DE2A9880E4C3DD212F302FC901EC017A
:1005000010E003C08991BBDD1F5F1F15D8F32A9A45
:10051000DF91CF911F910F91FF9008950F931F933B
:10052000CF93DF93EC0180EE5CDE81E08A95F1F7FA
:100530002A9880ECA4DDB4DD8C3F11F000E00FC000
:100540008883AEDD082F898381508F3040F412E01C
:1005500003C0A6DD89831F5F21961017D0F32A9A66
:10056000802FDF91CF911F910F9108950F931F93CB
:10057000082F84E136DE10E0015010408DE0B80114
:10058000D8DD8AE064E070E0D4DD80E01F910F9157
:1005900008951F93182F883088F484E122DE612F9C
:1005A00070E0660F771F61627A6084E0C2DD83E0ED
:1005B0008A95F1F781E0E0DD90E087FF91E0892FF7
:1005C0001F910895CF93DF9388E10BDE8CE060E00C
:1005D00074E49DDD8FE0A6DDBC0161608FE097DDF6
:1005E000CFEFDFEF8FE09EDD21979FEFCF3FD90761
:1005F00011F080FDF7CFCD2B19F4C0E0D0E004C09E
:100600008BE090DDEC01D17084E1EBDD8C2FDF918C
:10061000CF910895BBDD843099F084E1E2DD88E07C
:1006200065E470E086DD81E06FE772E082DD8DE0F9
:1006300060E07CE06CDD8FE060EC72E268DD80E021
:10064000089584E1CEDD88E065E470E072DD81E04C
:1006500066E07FEF6EDD9ADD843049F082E060E194
:1006600078EF67DD8FE060EC72E251DD80E00895A5
:1006700084E1B7DD86E08A95F1F788E067E470E011
:1006800058DD81E060E678E954DD80DD843049F0B2
:1006900082E060E378EF4DDD8FE060EC72E237DD01
:1006A00080E008951F93182F84E19BDD86E08A95F2
:1006B000F1F7E12FF0E0E930F10518F4E65EFF4FC5
:1006C000099481E025C080E061E073E01FC080E014
:1006D00069E073E01BC080E06AE073E017C080E06F
:1006E00061E673E013C080E06AE273E00FC080E06F
:1006F0006CE173E00BC080E066E273E007C080E06D
:100700006EE373E003C080E06FE573E022DD80E01C
:100710001F91089586E084B915B813B881E287B9AE
:1007200018B816B880E28AB91BB819B8089580E1E4
:1007300097E20197F1F786B18E3111F480E00895C8
:1007400086B10895482F50E0440F551F20E030E057
:10075000E0E260E573EC08C08BB18E278BB9CB016A
:100760000197F1F72F5F3F4F24173507ACF35D98E2
:100770000895CF93DF93EC0188E133DD83E08A9520
:10078000F1F704C080915301882321F04E99FACFEC
:10079000CE01C4DEDF91CF910895A1DE8AE121DD93
:1007A00083E08A95F1F74E99FECF0895EF92FF927C
:1007B0000F931F93DF93CF9300D000D00F92CDB74C
:1007C000DEB7DE011196EAE4F1E085E001900D92DA
:1007D0008150E1F79FDF08EA11E661E270E08BEEFD
:1007E00093E423DDF8013197F1F78823B1F788E02E
:1007F00059DF80E1BBDE84E1F4DC83E0A3DF90E13C
:10080000E92E97E2F92E8E010F5F1F4FC701019766
:10081000F1F786B18E31D1F386B18823B9F38631F1
:10082000A1F0873118F48E30A1F411C08A3141F063
:100830008C3179F481E086DFC80165E0AEDF09C064
:10084000C80165E0AADF82E003C083E001C084E064
:1008500079DF86B18E31E9F7D9CF5058BB27AA2767
:100860000ED070C161D130F066D120F031F49F3FDD
:1008700011F41EF456C10EF4E095E7FB4CC1E92FCC
:1008800072D180F3BA17620773078407950718F0CF
:1008900071F49EF58AC10EF4E0950B2EBA2FA02DAF
:1008A0000B01B90190010C01CA01A0011124FF271D
:1008B000591B99F0593F50F4503E68F11A16F04018
:1008C000A22F232F342F4427585FF3CF4695379517
:1008D0002795A795F0405395C9F77EF41F16BA0BDC
:1008E000620B730B840BBAF09150A1F0FF0FBB1F8A
:1008F000661F771F881FC2F70EC0BA0F621F731FD3
:10090000841F48F4879577956795B795F7959E3F2F
:1009100008F0B3CF9395880F08F09927EE0F9795BD
:1009200087950895D4D008F481E008950CD00AC1C9
:1009300002D140F0F9D030F021F45F3F19F0EBC064
:10094000511134C1EEC00FD198F39923C9F3552347
:10095000B1F3951B550BBB27AA27621773078407B2
:1009600038F09F5F5F4F220F331F441FAA1FA9F368
:1009700033D00E2E3AF0E0E830D091505040E6955A
:10098000001CCAF729D0FE2F27D0660F771F881FBB
:10099000BB1F261737074807AB07B0E809F0BB0BAA
:1009A000802DBF01FF2793585F4F2AF09E3F5105CE
:1009B00068F0B1C0FBC05F3FECF3983EDCF3869576
:1009C00077956795B795F7959F5FC9F7880F911D44
:1009D0009695879597F90895E1E0660F771F881F30
:1009E000BB1F621773078407BA0720F0621B730BE3
:1009F000840BBA0BEE1F88F7E0950895BCD088F001
:100A00009F5790F0B92F9927B751A0F0D1F0660FFA
:100A1000771F881F991F1AF0BA95C9F712C0B13015
:100A200081F0C3D0B1E00895C0C0672F782F882728
:100A3000B85F39F0B93FCCF3869577956795B39554
:100A4000D9F73EF490958095709561957F4F8F4FC3
:100A50009F4F0895E89409C097FB3EF490958095C8
:100A6000709561957F4F8F4F9F4F9923A9F0F92F74
:100A700096E9BB279395F695879577956795B795F2
:100A8000F111F8CFFAF4BB0F11F460FF1BC06F5FD8
:100A90007F4F8F4F9F4F16C0882311F096E911C0EA
:100AA000772321F09EE8872F762F05C0662371F00B
:100AB00096E8862F70E060E02AF09A95660F771F1F
:100AC000881FDAF7880F9695879597F90895990FFB
:100AD0000008550FAA0BE0E8FEEF16161706E80708
:100AE000F907C0F012161306E407F50798F0621B29
:100AF000730B840B950B39F40A2661F0232B242BFE
:100B0000252B21F408950A2609F4A140A6958FEF1C
:100B1000811D811D089597F99F6780E870E060E06E
:100B200008959FEF80EC089500240A941616170686
:100B300018060906089500240A94121613061406CE
:100B400005060895092E0394000C11F4882352F031
:100B5000BB0F40F4BF2B11F460FF04C06F5F7F4FE9
:100B60008F4F9F4F089557FD9058440F551F59F0D0
:100B70005F3F71F04795880F97FB991F61F09F3F8A
:100B800079F087950895121613061406551FF2CFB3
:100B90004695F1DF08C0161617061806991FF1CF03
:100BA00086957105610508940895E894BB2766272A
:100BB0007727CB0197F908950BD0C4CFB5DF28F084
:100BC000BADF18F0952309F0A6CFABCF1124EECFF2
:100BD000CADFA0F3959FD1F3950F50E0551F629F98
:100BE000F001729FBB27F00DB11D639FAA27F00D86
:100BF000B11DAA1F649F6627B00DA11D661F829FAD
:100C00002227B00DA11D621F739FB00DA11D621F91
:100C1000839FA00D611D221F749F3327A00D611DAE
:100C2000231F849F600D211D822F762F6A2F112490
:100C30009F5750408AF0E1F088234AF0EE0FFF1FE3
:100C4000BB1F661F771F881F91505040A9F79E3F1A
:100C5000510570F060CFAACF5F3FECF3983EDCF314
:100C6000869577956795B795F795E7959F5FC1F757
:100C7000FE2B880F911D9695879597F90895F89406
:020C8000FFCFA4
:100C82002112240A05B80000200A240000001100E5
:100C920000000000D418097000440008454CC02030
:100CA20006F7000000F80711709901020F40C02AF0
:100CB200450081D20400250827010F005F150000BE
:100CC2005F030084000000000000FE000102FF003C
:00000001FF
